:040000000DEF00F010
:040008001EEF13F0E4
:06001800FF0035EF16F0B9
:1026000000442D00000000082800000000142C00E9
:10261000000000BE2B000000000000004E2E000055
:102620000000000000522F00442F008340000000F3
:0B2630000240000000830000070100D2
:10263C00FAC425F5FBC426F59EAE27EF13F029EF5F
:10264C0013F034EF13F0AEAE2EEF13F030EF13F0B7
:10265C0034EF13F0F5EC16F08EEF13F09FA439EF76
:10266C0013F03BEF13F046EF13F0AFA440EF13F071
:10267C0042EF13F046EF13F00EEC17F08EEF13F061
:10268C00A0A04BEF13F04DEF13F058EF13F0B0A0E8
:10269C0052EF13F054EF13F058EF13F0C9EC17F09E
:1026AC008EEF13F0A1AE5DEF13F05FEF13F06AEF56
:1026BC0013F0B1AE64EF13F066EF13F06AEF13F0A2
:1026CC00DCEC16F08EEF13F0A1A26FEF13F071EFAC
:1026DC0013F07CEF13F0B1A276EF13F078EF13F058
:1026EC007CEF13F080EC15F08EEF13F0A1A081EFCE
:1026FC0013F083EF13F08EEF13F0B1A088EF13F00B
:10270C008AEF13F08EEF13F04DEC15F08EEF13F003
:10271C0026C5FBF425C5FAF411006DEC17F0D68E26
:10272C0004010895C7840985C386020E366E380EDF
:10273C00356EAD0EE82EFED7352EFCD7362EFAD7D9
:10274C000000C69804010099BE98C69C009DBE9CD2
:10275C00BE88A2EC16F0020E04EC14F0C3EC14F0DC
:10276C00200E2D6E070E81EC16F0BDEC17F0BAECB6
:10277C0017F01B04D8A4C5EF13F0C7EF13F0E0EF6C
:10278C0013F01A50356E366A050ED890353636363B
:10279C00E82ECBEF13F0200E35242D6E1D0E3620B7
:1027AC002E6E200E2F6E5EEC17F01A2ABE8C1B6A52
:1027BC00BFEF13F01E04D8A4E6EF13F0E8EF13F00C
:1027CC00BFEF13F0BE9C200E2D6E070E81EC16F0A1
:1027DC001E6A1C04D8A4F5EF13F0F7EF13F0FEEF0C
:1027EC0013F01B6A1C6ABAEC17F01A6ABFEF13F0ED
:1027FC00010E1B6EBFEF13F00DEF00F0296E000100
:10280C0084BF0BEF14F00DEF14F06DEF14F0810E8C
:10281C00096E2950050DF3502B0F276E27C5F6F4C2
:10282C00260EF76E000EF86E0800F5C484F02950E1
:10283C00050DF3C427F5010E272627502B0F286E04
:10284C0028C5F6F4260EF76E000EF86E0800F5C4D7
:10285C0085F02950050DF3C427F5020E27262750C5
:10286C002B0F286E28C5F6F4260EF76E000EF86EA8
:10287C000800F550FC0B866F2950050DF3C427F5A5
:10288C00030E272627502B0F286E28C5F6F4260E8C
:10289C00F76E000EF86E0800F5C489F02950050D8E
:1028AC00F3C427F5040E272627502B0F286E28C5B6
:1028BC00F6F4260EF76E000EF86E0800F5C48CF0D8
:1028CC00C898A184848F859B858D6DEF14F01200C0
:1028DC00BE6ABF6AC06AC16AC26AC36A0401026B7B
:1028EC000A6B126B1A6B226B2A6BAF0EC66EC76823
:1028FC00E70EC86EFD0EC96E0F0ECA6EF30ECB6ED0
:10290C00AF0E006FFB0E086FC70E106FFD0E186F29
:10291C00070E206FF30E286F016B096B116B196B8F
:10292C00216B296B03690B6913691B69070E236FF4
:10293C002B6904690C6914691C690F0E246F2C69CE
:10294C000201896B886B876B866B150E6B6F320E71
:10295C00156F130E6A6F310E146F0401056B066B45
:10296C00076B0D6B0E6B0F6B156B166B176B256B6B
:10297C00266B276B0E859E8E1200BE9C000EC0EC43
:10298C0016F0050EC0EC16F0020E2D6E000E81EC4A
:10299C0016F0200E336E2A0EE82EFED7332EFCD7FF
:1029AC00010E2D6E020E81EC16F0000E2D6E040E33
:1029BC0081EC16F0770E2D6E050E81EC16F0700E74
:1029CC002D6E070E81EC16F04B0E2D6E050E2E6E35
:1029DC00050E2F6E100E3BEC17F0000E2D6E010E37
:1029EC0081EC16F0000EC0EC16F0346E170EC0EC35
:1029FC0016F0BE98E10E27EC17F0BE88350EE82EC7
:102A0C00FED7000034A20DEF15F00FEF15F012EF0A
:102A1C0015F0000E13EF15F0010E1200E00E131856
:102A2C0009E1070E1418D8B41EEF15F020EF15F0BD
:102A3C004CEF15F078EC17F0040E236E2034203296
:102A4C001F32232E24EF15F01F50246E200E13245A
:102A5C00D96E1D0E1420DA6E24C5DFF4134A142A25
:102A6C00E00E131807E1070E1418D8A440EF15F068
:102A7C0042EF15F04AEF15F0000E146E000E136EB7
:102A8C00010E1B6E4CEF15F0C6EC17F01200075040
:102A9C000810D8B454EF15F056EF15F066EF15F09A
:102AAC0003C5D9F404C5DAF480C0DFF4034A042A60
:102ABC00FF0E0724076EFF0E0820086E68EF15F056
:102ACC000001805107500810D8A46FEF15F071EF7A
:102ADC0015F07FEF15F0A19005500610D8A479EFF2
:102AEC0015F07BEF15F07FEF15F0810E096E7FEF7F
:102AFC0015F0120005500610D8B487EF15F089EFC9
:102B0C0015F098EF15F001C5D9F402C5DAF4DF50D1
:102B1C000001816F014A022AFF0E0524056EFF0E8B
:102B2C000620066E05500610D8A49FEF15F0A1EFF5
:102B3C0015F0AFEF15F0A19207500810D8A4A9EF2B
:102B4C0015F0ABEF15F0AFEF15F0810E096EAFEF8E
:102B5C0015F012000301F39FD96BDA6BDB6BDC6BA6
:102B6C00DF6BE06BE56BE76BEC6BEE6BEF6BD86BD5
:102B7C00F06BF16BF26BF46B180EF56F100EF66FC9
:102B8C00F76BF86B1F0EFA6FF96B280E376E2A0E67
:102B9C00386E000E396E000E0A6E000E0B6E000EB3
:102BAC000C6E196AAF949F84B090A090840EF36F52
:102BBC00120027C52BF528C52CF5810E0918D8A4B1
:102BCC00EAEF15F0ECEF15F009EF16F00001878530
:102BDC008651FE0B0209866F2BC501F52CC502F53B
:102BEC00000E036E000E046E29C505F52AC506F508
:102BFC00000E086E000E076E420E096E2A50836F8F
:102C0C0029C582F0A182120027C52BF528C52CF509
:102C1C00810E0918D8A415EF16F017EF16F034EF43
:102C2C0016F00001878586510309866F2BC501F5C7
:102C3C002CC502F52BC503F52CC504F529C505F5E6
:102C4C002AC506F529C507F52AC508F5420E096EF1
:102C5C002A50836F29C582F0A180A1821200600ED8
:102C6C00F66E2F0EF76E000EF86E01EE46F110EEBA
:102C7C000AF00900F5C4EEF4E550E150FAE107EE74
:102C8C0020F111EEE0F3EE6AE550E150FCE1E25088
:102C9C00FAE101EE01F11E0EEE6AE806FDE1040117
:102CAC00080E5D6F000E5E6F000E5F6F000193EFFC
:102CBC0013F0D69AAF90D690000E276E000E286EA9
:102CCC00000E296E9BEC17F0B490D682000E276E86
:102CDC00000E286E000E296E94EC17F0B890D68476
:102CEC00000E276E000E286E000E296E8DEC17F06C
:102CFC00D68E9E8E12002F6E2F501F0B2009306E19
:102D0C00000E326E000E316E30C531F52DC532F528
:102D1C00BE98310E276E050E286E000E2A6E020E1E
:102D2C00296E0AEC16F0BE88D00E2E6ECA0EE82E56
:102D3C00FED72E2EFCD71200A194A182A1800001F7
:102D4C00846B040E856F866B100E896F8C6B878578
:102D5C00000E276E000E286E000E296EA9EC17F0DF
:102D6C00000E276E000E286E000E296EA2EC17F0D6
:102D7C00096A12002D6E2D501F0B2E6E000E306E38
:102D8C00000E2F6E2EC52FF53068BE982F0E276EB5
:102D9C00050E286E000E2A6E020E296E0AEC16F035
:102DAC00BE88500EE82EFED7305012003A503B1021
:102DBC003C10D8B4E4EF16F0E6EF16F0F3EF16F093
:102DCC0002D8F3EF16F00500FA6E3A50FD6E3B5048
:102DDC00FE6E3C50FF6EFA501200B19E12000FC4F2
:102DEC001FF51F50FF0A04010F17010E1E6E3F0E38
:102DFC001D18D8A404EF17F006EF17F00CEF17F01E
:102E0C001D6A010E1C6E1B6A0DEF17F01D2A1200B5
:102E1C00AF94375038103910D8B417EF17F019EFAA
:102E2C0017F026EF17F002D826EF17F00500FA6E10
:102E3C003750FD6E3850FE6E3950FF6EFA5012004E
:102E4C001200276E810E0918D8A42FEF17F031EF5E
:102E5C0017F03AEF17F0000186510309866F836B68
:102E6C00010E826F27C581F01200306E30C531F52E
:102E7C00BE98315027EC17F02DC527F52EC528F537
:102E8C002FC529F52A6ADFEC15F0BE881200A50EB5
:102E9C000301196F186B750E1B6F6A0E3A6E2F0EAD
:102EAC003B6E000E3C6EB19EA18E800E1A6F12000E
:102EBC00BE98A00E27EC17F02DC527F52EC528F5CA
:102ECC002FC529F52A6ADFEC15F0BE88120083ECB9
:102EDC0017F06EEC14F0B0EC15F04DEC17F05FEC55
:102EEC0016F012000301EB51226E216AEA512124E3
:102EFC001F6E000E2220206E1200600E0001AD6FBE
:102F0C00AF6BB36B080EB16FB06BAC6B120027C517
:102F1C003DF528C53EF529C53FF5120027C540F5FE
:102F2C0028C541F529C542F5120027C543F528C52A
:102F3C0044F529C545F5120027C50DF528C50EF534
:102F4C0029C50FF5120027C510F528C511F529C59F
:102F5C0012F51200E7E7E7E7E7E7E7E7E7E7C0EC9A
:102F6C0017F0C3EC17F0120003011A8F12000301C3
:102F7C00F38F120003011A9F12000301F381120058
:0A2F8C0003011A8F1200B09012002A
:020000040030CA
:080000008FFFF7FF9FFFFFFFD8
:01000900FFF7
:00000001FF
