:040000000DEF00F010
:0400080096EF14F06B
:06001800FF00D0EF15F01F
:1026000000B62C000000003C2600000000342A0028
:10261000000000F42A00000000000000882D0000E7
:102620000000000000742E00662E008340000000B1
:0B2630000240000000830000070100D2
:10263C00116E000184BF25EF13F027EF13F087EF25
:10264C0013F0810E276E1150050DF3502B0F0F6EEA
:10265C000FC5F6F4260EF76E000EF86E0800F5C4E2
:10266C0084F01150050DF3C40FF5010E0F260F5019
:10267C002B0F106E10C5F6F4260EF76E000EF86ECA
:10268C000800F5C485F01150050DF3C40FF5020ECA
:10269C000F260F502B0F106E10C5F6F4260EF76E8A
:1026AC00000EF86E0800F550FC0B866F1150050DEE
:1026BC00F3C40FF5030E0F260F502B0F106E10C521
:1026CC00F6F4260EF76E000EF86E0800F5C489F0CD
:1026DC001150050DF3C40FF5040E0F260F502B0FE0
:1026EC00106E10C5F6F4260EF76E000EF86E08008C
:1026FC00F5C48CF0C898A184848F859B858D87EF59
:10270C0013F0120015EC17F0D68E04010895C7844F
:10271C000985C386020E1E6E380E1D6EAD0EE82E98
:10272C00FED71D2EFCD71E2EFAD70000C69804012A
:10273C000099BE98C69C009DBE9CBE885BEC16F0B2
:10274C00020E1EEC13F045EC14F021EE60F111EECC
:10275C008AF11F0EDBC4E3F4E806FCE2200E156ED2
:10276C00070EF9EC15F048EC17F08A0E156E050EF5
:10277C00166E200E176EFCEC16F0BE8C290E326411
:10278C00CAEF13F0CCEF13F0CDEF13F0326A322A0C
:10279C000501AA6B8A0EAA25D96EDA6A050EDA2211
:1027AC0032C5DFF4AA2B1F0EAA65DFEF13F0E1EFA1
:1027BC0013F0D0EF13F0F40E1E6E820E1D6E050E8C
:1027CC00E82EFED71D2EFCD71E2EFAD70000B9EF2F
:1027DC0013F00DEF00F0BE6ABF6AC06AC16AC26A2C
:1027EC00C36A0401026B0A6B126B1A6B226B2A6BA5
:1027FC00AF0EC66EC768E70EC86EFD0EC96E0F0E23
:10280C00CA6EF30ECB6EAF0E006FFB0E086FC70EC9
:10281C00106FFD0E186F070E206FF30E286F016BF3
:10282C00096B116B196B216B296B03690B691369AC
:10283C001B69070E236F2B6904690C6914691C69E9
:10284C000F0E246F2C690201896B886B876B866B6A
:10285C00150E6B6F320E156F130E6A6F310E146FEF
:10286C000401056B066B076B0D6B0E6B0F6B156B19
:10287C00166B176B256B266B276B0E851200BE9C97
:10288C00000E79EC16F0050E79EC16F0020E156EB2
:10289C00000EF9EC15F0200E1B6E2A0EE82EFED75A
:1028AC001B2EFCD7010E156E020EF9EC15F0000E66
:1028BC00156E040EF9EC15F0770E156E050EF9EC8D
:1028CC0015F0700E156E070EF9EC15F0850E156EE1
:1028DC00050E166E050E176E100ED8EC16F0000EC7
:1028EC00156E010EF9EC15F0000E79EC16F01C6E5D
:1028FC00170E79EC16F0BE98E10EC4EC16F0BE88FB
:10290C00350EE82EFED700001CA28FEF14F091EFCD
:10291C0014F094EF14F0000E95EF14F0010E120069
:10292C00FAC40DF5FBC40EF59EAE9FEF14F0A1EFAB
:10293C0014F0ACEF14F0AEAEA6EF14F0A8EF14F058
:10294C00ACEF14F041EC17F0E2EF14F0A1AEB1EFE4
:10295C0014F0B3EF14F0BEEF14F0B1AEB8EF14F006
:10296C00BAEF14F0BEEF14F095EC16F0E2EF14F0A1
:10297C00A1A2C3EF14F0C5EF14F0D0EF14F0B1A284
:10298C00CAEF14F0CCEF14F0D0EF14F04AEC15F0C1
:10299C00E2EF14F0A1A0D5EF14F0D7EF14F0E2EFB2
:1029AC0014F0B1A0DCEF14F0DEEF14F0E2EF14F051
:1029BC00E7EC14F0E2EF14F00EC5FBF40DC5FAF4DD
:1029CC00110025502610D8B4EEEF14F0F0EF14F0EF
:1029DC0000EF15F021C5D9F422C5DAF480C0DFF47C
:1029EC00214A222AFF0E2524256EFF0E2620266E54
:1029FC0002EF15F00001805125502610D8A409EFE4
:102A0C0015F00BEF15F019EF15F0A19023502410D1
:102A1C00D8A413EF15F015EF15F019EF15F0810E82
:102A2C00276E19EF15F01200D7AE1FEF15F0A5EFBA
:102A3C0015F00FC513F510C514F5810E2718D8A481
:102A4C002AEF15F02CEF15F049EF15F000018785F2
:102A5C0086510309866F13C51FF514C520F513C5E0
:102A6C0021F514C522F511C523F512C524F511C5A0
:102A7C0025F512C526F5420E276E1250836F11C52F
:102A8C0082F0A180A182120023502410D8B451EFFF
:102A9C0015F053EF15F062EF15F01FC5D9F420C5F2
:102AAC00DAF4DF500001816F1F4A202AFF0E232425
:102ABC00236EFF0E2420246E23502410D8A469EF1B
:102ACC0015F06BEF15F079EF15F0A192255026104B
:102ADC00D8A473EF15F075EF15F079EF15F0810EA2
:102AEC00276E79EF15F012000FC513F510C514F50C
:102AFC00810E2718D8A485EF15F087EF15F0A4EFF9
:102B0C0015F0000187858651FE0B0209866F13C5EF
:102B1C001FF514C520F5000E216E000E226E11C596
:102B2C0023F512C524F5000E266E000E256E420EFE
:102B3C00276E1250836F11C582F0A182120001C55D
:102B4C0005F502C506F5810E2718D8A4B0EF15F0CF
:102B5C00B2EF15F0CFEF15F0000187858651030910
:102B6C00866F05C51FF506C520F505C521F506C5FB
:102B7C0022F503C523F504C524F503C525F504C5C5
:102B8C0026F5420E276E0450836F03C582F0A18098
:102B9C00A18212005E0EF66E2D0EF76E000EF86E10
:102BAC0001EE60F110EE2AF00900F5C4EEF4E550E8
:102BBC00E150FAE1980EF66E2E0EF76E000EF86EDE
:102BCC000900F5C43CF501EE1FF1140EEE6AE8069F
:102BDC00FDE10401080E5D6F000E5E6F000E5F6F6D
:102BEC00000188EF13F0176E17501F0B2009186E99
:102BFC0030C519F531C51AF518C519F515C51AF5ED
:102C0C00BE98190E0F6E050E106E000E126E020E8F
:102C1C00116E1AEC15F0BE88D00E166ECA0EE82E88
:102C2C00FED7162EFCD71200096E09501F0B200977
:102C3C000A6E30C50BF531C50CF50AC50BF507C589
:102C4C000CF5BE980B0E016E050E026E000E046E96
:102C5C00020E036EA5EC15F0BE88D00E086ECA0EDF
:102C6C00E82EFED7082EFCD71200D69AAF90D6903D
:102C7C00000E0F6E000E106E000E116E2CEC17F085
:102C8C00B490D682000E0F6E000E106E000E116EF8
:102C9C0025EC17F0B890D684000E0F6E000E106E57
:102CAC00000E116E1EEC17F01200A194A182A180EF
:102CBC000001846B040E856F866B100E896F8C6B14
:102CCC008785000E0F6E000E106E000E116E3AEC22
:102CDC0017F0000E0F6E000E106E000E116E33EC1E
:102CEC0017F0276A1200156E15501F0B166E000E8A
:102CFC00186E000E176E16C517F51868BE98170ECD
:102D0C000F6E050E106E000E126E020E116E1AEC86
:102D1C0015F0BE88500EE82EFED718501200050193
:102D2C00AB51AC11AD11D8B49EEF16F0A0EF16F06C
:102D3C00ADEF16F002D8ADEF16F00500FA6EAB5100
:102D4C00FD6EAC51FE6EAD51FF6EFA501200B19E8D
:102D5C00120009646E78828C96100000000000004E
:102D6C000000000000000000000000000000000057
:102D7C000000E7E7E7E7E7E7E7E7E7E70F6E810E35
:102D8C002718D8A4CCEF16F0CEEF16F0D7EF16F02C
:102D9C00000186510309866F836B010E826F0FC58C
:102DAC0081F01200186E18C519F5BE981950C4ECB4
:102DBC0016F015C50FF516C510F517C511F5126AE5
:102DCC007AEC15F0BE88120003011969186B700EAD
:102DDC001B6F960E0501AB6F2E0EAC6F000EAD6F18
:102DEC00B19EA18E800E03011A6F1200BE98A00E28
:102DFC00C4EC16F015C50FF516C510F517C511F571
:102E0C00126A7AEC15F0BE881200600E0001AD6FEC
:102E1C00AF6BB36B080EB16FB06BAC6B12000BECFD
:102E2C0017F0F1EC13F0EAEC16F03BEC16F0120094
:102E3C000FC533F510C534F511C535F512000FC5A6
:102E4C0036F510C537F511C538F512000FC539F533
:102E5C0010C53AF511C53BF512000FC528F510C584
:102E6C0029F511C52AF512000FC52BF510C52CF547
:102E7C0011C52DF51200200E076E070E1AEC16F078
:0D2E8C00BE9C120003011A9F1200120001EB
:020000040030CA
:080000008FFFF7FF9FFFFFFFD8
:01000900FFF7
:00000001FF
