:040000000DEF00F010
:04000800A9EF15F057
:06001800FF00F3EF14F0FD
:10260000001A2C00000000642700000000FC2A00D3
:10261000000000A62A000000000000008E2C000030
:102620000000000000942D00862D00834000000073
:0B2630000240000000830000070100D2
:10263C00A5EC16F0D68E04010895C7840985C386CF
:10264C00020E106E380E0F6EAD0EE82EFED70F2E4A
:10265C00FCD7102EFAD70000C69804010099BE983A
:10266C00C69C009DBE9CBE880DEC16F0020EB2EC12
:10267C0013F06FEC14F021EE60F111EE11F11F0E5E
:10268C00DBC4E3F4E806FCE2200E076E070ECCEC8C
:10269C0015F0100E076E070ECCEC15F0050E2BEC9A
:1026AC0016F0110E076E050E086E200E096E7DECED
:1026BC0016F0070E2BEC16F0E40E00D000D0E82E2E
:1026CC00FCD700D000D0BE8C070E0F6E3A0EE82E51
:1026DC00FED70F2EFCD700D0BE9C070E2BEC16F0AD
:1026EC00316E31AA7CEF13F07EEF13F083EF13F011
:1026FC00200E076E070ECCEC15F0070E2BEC16F027
:10270C00290E46648CEF13F08EEF13F08FEF13F05D
:10271C00466A462A326A110E3224D96EDA6A050EDE
:10272C00DA2246C5DFF4322A1F0E3264A0EF13F012
:10273C00A2EF13F091EF13F0F40E106E820E0F6EE9
:10274C00050EE82EFED70F2EFCD7102EFAD7000060
:10275C004FEF13F00DEF00F0036E000184BFB9EFE3
:10276C0013F0BBEF13F01BEF14F0810E3B6E035014
:10277C00050DF3502B0F016E01C5F6F4260EF76E06
:10278C00000EF86E0800F5C484F00350050DF3C478
:10279C0001F5010E012601502B0F026E02C5F6F455
:1027AC00260EF76E000EF86E0800F5C485F0035087
:1027BC00050DF3C401F5020E012601502B0F026E1C
:1027CC0002C5F6F4260EF76E000EF86E0800F550F2
:1027DC00FC0B866F0350050DF3C401F5030E0126A7
:1027EC0001502B0F026E02C5F6F4260EF76E000E8A
:1027FC00F86E0800F5C489F00350050DF3C401F51B
:10280C00040E012601502B0F026E02C5F6F4260EA3
:10281C00F76E000EF86E0800F5C48CF0C898A18411
:10282C00848F859B858D1BEF14F01200BE6ABF6AE6
:10283C00C06AC16AC26AC36A0401026B0A6B126B7A
:10284C001A6B226B2A6BAF0EC66EC768E70EC86E8A
:10285C00FD0EC96E0F0ECA6EF30ECB6EAF0E006F6F
:10286C00FB0E086FC70E106FFD0E186F070E206F52
:10287C00F30E286F016B096B116B196B216B296BB4
:10288C0003690B6913691B69070E236F2B690469B4
:10289C000C6914691C690F0E246F2C690201896B79
:1028AC00886B876B866B150E6B6F320E156F130E64
:1028BC006A6F310E146F0401056B066B076B0D6BA1
:1028CC000E6B0F6B156B166B176B256B266B276BD3
:1028DC001200BE9C000E2BEC16F0050E2BEC16F025
:1028EC00020E076E000ECCEC15F0200E0D6E2A0EAB
:1028FC00E82EFED70D2EFCD7010E076E020ECCEC87
:10290C0015F0000E076E040ECCEC15F0770E076E6A
:10291C00050ECCEC15F0700E076E070ECCEC15F016
:10292C00580E076E050E086E050E096E100E5BEC48
:10293C0016F0000E076E010ECCEC15F0000E2BEC11
:10294C0016F00E6E170E2BEC16F0BE98E10E47EC3F
:10295C0016F0BE88350EE82EFED700000EA2B9EF99
:10296C0014F0BBEF14F0BEEF14F0000EBFEF14F038
:10297C00010E120039503A10D8B4C7EF14F0C9EF59
:10298C0014F0D9EF14F035C5D9F436C5DAF480C09B
:10299C00DFF4354A362AFF0E3924396EFF0E3A2001
:1029AC003A6EDBEF14F00001805139503A10D8A484
:1029BC00E2EF14F0E4EF14F0F2EF14F0A1903750C2
:1029CC003810D8A4ECEF14F0EEEF14F0F2EF14F092
:1029DC00810E3B6EF2EF14F01200DA0EF66E2C0E36
:1029EC00F76E000EF86E01EE60F110EE20F00900AB
:1029FC00F5C4EEF4E550E150FAE1A20EF66E2D0EA0
:102A0C00F76E000EF86E01EE53F110EE0AF00900AD
:102A1C00F5C4EEF4E550E150FAE101EE33F1140E99
:102A2C00EE6AE806FDE10401080E5D6F000E5E6FB4
:102A3C00000E5F6F00011EEF13F037503810D8B442
:102A4C002AEF15F02CEF15F03BEF15F033C5D9F448
:102A5C0034C5DAF4DF500001816F334A342AFF0E9B
:102A6C003724376EFF0E3820386E37503810D8A404
:102A7C0042EF15F044EF15F052EF15F0A1923950DA
:102A8C003A10D8A44CEF15F04EEF15F052EF15F0AC
:102A9C00810E3B6E52EF15F0120001C505F502C513
:102AAC0006F5810E3B18D8A45EEF15F060EF15F01B
:102ABC007DEF15F0000187858651FE0B0209866FAC
:102ACC0005C533F506C534F5000E356E000E366EB1
:102ADC0003C537F504C538F5000E3A6E000E396E95
:102AEC00420E3B6E0450836F03C582F0A18212002C
:102AFC0001C505F502C506F5810E3B18D8A489EF72
:102B0C0015F08BEF15F0A8EF15F0000187858651B5
:102B1C000309866F05C533F506C534F505C535F5CE
:102B2C0006C536F503C537F504C538F503C539F5C3
:102B3C0004C53AF5420E3B6E0450836F03C582F018
:102B4C00A180A1821200A1A2AEEF15F0B0EF15F09A
:102B5C00BBEF15F0B1A2B5EF15F0B7EF15F0BBEF69
:102B6C0015F023EC15F0CBEF15F0A1A0C0EF15F08C
:102B7C00C2EF15F0CBEF15F0B1A0C7EF15F0C9EF10
:102B8C0015F0CBEF15F0C0EC14F01100096E0950E4
:102B9C001F0B20090A6E000E0C6E000E0B6E0AC580
:102BAC000BF507C50CF5BE980B0E016E050E026EEB
:102BBC00000E046E020E036E7EEC15F0BE88D00E75
:102BCC00086ECA0EE82EFED7082EFCD71200D69A35
:102BDC00AF90D680000E016E000E026E000E036EDA
:102BEC00BCEC16F0B490D682000E016E000E026E94
:102BFC00000E036EB5EC16F0B890D684000E016E84
:102C0C00000E026E000E036EAEEC16F01200A194D4
:102C1C00A182A1800001846B040E856F866B100E5F
:102C2C00896F8C6B8785000E016E000E026E000E94
:102C3C00036ECAEC16F0000E016E000E026E000E52
:102C4C00036EC3EC16F03B6A1200076E07501F0BA5
:102C5C00086E000E0A6E000E096E08C509F50A68AA
:102C6C00BE98090E016E050E026E000E046E020E69
:102C7C00036E7EEC15F0BE88500EE82EFED70A507F
:102C8C001200016E810E3B18D8A44FEF16F051EFD5
:102C9C0016F05AEF16F0000186510309866F836B0C
:102CAC00010E826F01C581F012000A6E0AC50BF588
:102CBC00BE980B5047EC16F007C501F508C502F598
:102CCC0009C503F5046A53EC15F0BE8812000964BB
:102CDC006E78828C9610000000000000000000004E
:102CEC000000000000000000000000000000BE9882
:102CFC00A00E47EC16F007C501F508C502F509C58D
:102D0C0003F5046A53EC15F0BE881200030119692F
:102D1C00186B700E1B6F000E476E000E486E000E87
:102D2C00496EB19E800E1A6F1200600E0001AD6FDD
:102D3C00AF6BB36B080EB16FB06BAC6B12009BEC4E
:102D4C0016F01CEC14F08CEC16F0EDEC15F01200F7
:102D5C0001C54AF502C54BF503C54CF5120001C57A
:102D6C004DF502C54EF503C54FF5120001C550F5E2
:102D7C0002C551F503C552F5120001C53CF502C55B
:102D8C003DF503C53EF5120001C53FF502C540F502
:102D9C0003C541F51200E7E7E7E7E7E7E7E7E7E711
:020000040030CA
:080000008FFFF7FF9FFFFFFFD8
:01000900FFF7
:00000001FF
