:040000000DEF00F010
:04000800BEEF13F044
:06001800FF0083EF15F06C
:1026000000D22D00000000662800000000F62C001B
:10261000000000A02C00000000000000DC2E0000E4
:102620000000000000003000F22F00834000000096
:0B2630000240000000830000070100D2
:10263C00C4EC17F0D68E04010895C7840985C386AF
:10264C00020E386E380E376EAD0EE82EFED7372ED2
:10265C00FCD7382EFAD70000C69804010099BE9812
:10266C00C69C009DBE9CBE88E9EC16F0020E33ECB5
:10267C0014F0F0EC14F0200E2F6E070EC8EC16F0D0
:10268C0016EC18F013EC18F02004D8A450EF13F04B
:10269C0052EF13F079EF13F0030E1F18D8A459EF73
:1026AC0013F05BEF13F06BEF13F0600E2F6E050E53
:1026BC00306E200E316EB5EC17F01E6A206A1F6A60
:1026CC00010E0301EC6F4AEF13F0206A4D0E1F242C
:1026DC00D96EDA6A050EDA22DF500301EC6F19ECC1
:1026EC0018F04AEF13F01E04D8A47FEF13F081EF1B
:1026FC0013F09AEF13F01950376E386A050ED89014
:10270C0037363836E82E85EF13F0800E37242F6ECF
:10271C00050E3820306E200E316EB5EC17F0192AEC
:10272C00BE8C1E6A4AEF13F01D04D8A4A0EF13F060
:10273C00A2EF13F04AEF13F0BE9C200E2F6E070E83
:10274C00C8EC16F01D6A1C04D8A4AFEF13F0B1EF5F
:10275C0013F0B8EF13F01E6A1C6A13EC18F0196A28
:10276C004AEF13F0010E1E6E4AEF13F00DEF00F05E
:10277C00FAC427F5FBC428F59EAEC7EF13F0C9EFDA
:10278C0013F0D4EF13F0AEAECEEF13F0D0EF13F096
:10279C00D4EF13F03CEC17F02EEF14F09FA4D9EF0C
:1027AC0013F0DBEF13F0E6EF13F0AFA4E0EF13F050
:1027BC00E2EF13F0E6EF13F055EC17F02EEF14F0F8
:1027CC00A0A0EBEF13F0EDEF13F0F8EF13F0B0A0C7
:1027DC00F2EF13F0F4EF13F0F8EF13F025EC18F020
:1027EC002EEF14F0A1AEFDEF13F0FFEF13F00AEF94
:1027FC0014F0B1AE04EF14F006EF14F00AEF14F07D
:10280C0023EC17F02EEF14F0A1A20FEF14F011EF40
:10281C0014F01CEF14F0B1A216EF14F018EF14F032
:10282C001CEF14F020EC16F02EEF14F0A1A021EF09
:10283C0014F023EF14F02EEF14F0B1A028EF14F0E5
:10284C002AEF14F02EEF14F0BDEC15F02EEF14F06F
:10285C0028C5FBF427C5FAF411002B6E000184BFC8
:10286C003AEF14F03CEF14F09CEF14F0810E096E6B
:10287C002B50050DF3502B0F296E29C5F6F4260E9F
:10288C00F76E000EF86E0800F5C484F02B50050DA1
:10289C00F3C429F5010E292629502B0F2A6E2AC5BF
:1028AC00F6F4260EF76E000EF86E0800F5C485F0EF
:1028BC002B50050DF3C429F5020E292629502B0F98
:1028CC002A6E2AC5F6F4260EF76E000EF86E080076
:1028DC00F550FC0B866F2B50050DF3C429F5030E38
:1028EC00292629502B0F2A6E2AC5F6F4260EF76ED0
:1028FC00000EF86E0800F5C489F02B50050DF3C4DA
:10290C0029F5040E292629502B0F2A6E2AC5F6F418
:10291C00260EF76E000EF86E0800F5C48CF0C89801
:10292C00A184848F859B858D9CEF14F01200BE6A68
:10293C00BF6AC06AC16AC26AC36A0401026B0A6BCD
:10294C00126B1A6B226B2A6BAF0EC66EC768E70E42
:10295C00C86EC9680F0ECA6EFB0ECB6EAF0E006F41
:10296C00FB0E086FC70E106F1869070E206FFB0E59
:10297C00286F016B096B116B196B216B296B036948
:10298C000B6913691B69070E236F2B6904690C69AA
:10299C0014691C690F0E246F2C690201896B886BFA
:1029AC00876B866B150E6B6F320E156F130E6A6F7D
:1029BC00310E146F0401056B066B076B0D6B0E6B00
:1029CC000F6B156B166B176B256B266B276B0E85B8
:1029DC009E8E1200BE9C000E07EC17F0050E07EC45
:1029EC0017F0020E2F6E000EC8EC16F0200E356E8E
:1029FC002A0EE82EFED7352EFCD7010E2F6E020EB6
:102A0C00C8EC16F0000E2F6E040EC8EC16F0770E04
:102A1C002F6E050EC8EC16F0700E2F6E070EC8EC5C
:102A2C0016F0500E2F6E050E306E050E316E100E18
:102A3C0082EC17F0000E2F6E010EC8EC16F0000E93
:102A4C0007EC17F0366E170E07EC17F0BE98E10E78
:102A5C006EEC17F0BE88350EE82EFED7000036A2BD
:102A6C003AEF15F03CEF15F03FEF15F0000E40EF8C
:102A7C0015F0010E1200CFEC17F0040E256E223467
:102A8C0022322132252E45EF15F02150266EE00E14
:102A9C00171809E1070E1818D8B457EF15F059EFAD
:102AAC0015F077EF15F0800E1724D96E050E18204F
:102ABC00DA6E26C5DFF4174A182AE00E171807E15C
:102ACC00070E1818D8A46DEF15F06FEF15F073EF13
:102ADC0015F0010E206E82EF15F022EC18F082EF4B
:102AEC0015F0620E1F24D96EDA6A050EDA2226C59D
:102AFC00DFF41F2A6FEF15F012004A0EF66E2F0E40
:102B0C00F76E000EF86E01EE60F110EE20F0090089
:102B1C00F5C4EEF4E550E150FAE10E0EF66E300E0F
:102B2C00F76E000EF86E01EE48F110EE0DF0090094
:102B3C00F5C4EEF4E550E150FAE101EE80F111EE4E
:102B4C00E0F3EE6AE550E150FCE1E250FAE101EE0F
:102B5C0001F1200EEE6AE806FDE10401080E5D6F3E
:102B6C00000E5E6F000E5F6F00011EEF13F007503A
:102B7C000810D8B4C4EF15F0C6EF15F0D6EF15F069
:102B8C0003C5D9F404C5DAF480C0DFF4034A042A7F
:102B9C00FF0E0724076EFF0E0820086ED8EF15F005
:102BAC000001805107500810D8A4DFEF15F0E1EFB9
:102BBC0015F0EFEF15F0A19005500610D8A4E9EF31
:102BCC0015F0EBEF15F0EFEF15F0810E096EEFEF4E
:102BDC0015F012000301F39FD96BDA6BDB6BDC6B26
:102BEC00DF6BE06BE56BE76B010EEC6FEE6BEF6B85
:102BFC00D86BF06BF16BF26BF46B180EF56F100E6B
:102C0C00F66FF76BF86B1F0EFA6FF96B820E456E51
:102C1C002A0E466E000E476E000E106E000E116EE0
:102C2C00000E126E1A6AAF949F84B090A090840E1E
:102C3C00F36F120005500610D8B427EF16F029EFE9
:102C4C0016F038EF16F001C5D9F402C5DAF4DF50EE
:102C5C000001816F014A022AFF0E0524056EFF0E4A
:102C6C000620066E05500610D8A43FEF16F041EF73
:102C7C0016F04FEF16F0A19207500810D8A449EFA8
:102C8C0016F04BEF16F04FEF16F0810E096E4FEF6A
:102C9C0016F0120029C52DF52AC52EF5810E09183E
:102CAC00D8A45BEF16F05DEF16F07AEF16F000018A
:102CBC0087858651FE0B0209866F2DC501F52EC541
:102CCC0002F5000E036E000E046E2BC505F52CC527
:102CDC0006F5000E086E000E076E420E096E2C50A3
:102CEC00836F2BC582F0A182120029C52DF52AC550
:102CFC002EF5810E0918D8A486EF16F088EF16F081
:102D0C00A5EF16F00001878586510309866F2DC546
:102D1C0001F52EC502F52DC503F52EC504F52BC501
:102D2C0005F52CC506F52BC507F52CC508F5420E87
:102D3C00096E2C50836F2BC582F0A180A1821200EA
:102D4C00D69AAF90D690000E296E000E2A6E000E09
:102D5C002B6EF2EC17F0B490D682000E296E000E9A
:102D6C002A6E000E2B6EEBEC17F0B890D684000E8A
:102D7C00296E000E2A6E000E2B6EE4EC17F0D68E28
:102D8C009E8E1200316E31501F0B2009326E000ED8
:102D9C00346E000E336E32C533F52FC534F5BE9844
:102DAC00330E296E050E2A6E000E2C6E020E2B6E43
:102DBC007BEC16F0BE88D00E306ECA0EE82EFED715
:102DCC00302EFCD71200A194A182A1800001846B4B
:102DDC00040E856F866B100E896F8C6B8785000EC9
:102DEC00296E000E2A6E000E2B6E00EC18F0000EF1
:102DFC00296E000E2A6E000E2B6EF9EC17F0096A84
:102E0C0012002F6E2F501F0B306E000E326E000E04
:102E1C00316E30C531F53268BE98310E296E050E13
:102E2C002A6E000E2C6E020E2B6E7BEC16F0BE88FA
:102E3C00500EE82EFED73250120039503A103B108B
:102E4C00D8B42BEF17F02DEF17F03AEF17F002D89C
:102E5C003AEF17F00500FA6E3950FD6E3A50FE6EDF
:102E6C003B50FF6EFA501200B19E12000FC421F5B8
:102E7C002150FF0A04010F17010E1D6E400E1B1886
:102E8C00D8A44BEF17F04DEF17F053EF17F01B6A68
:102E9C00010E1C6E1E6A54EF17F01B2A1200AF9421
:102EAC00455046104710D8B45EEF17F060EF17F09E
:102EBC006DEF17F002D86DEF17F00500FA6E455064
:102ECC00FD6E4650FE6E4750FF6EFA501200120017
:102EDC00296E810E0918D8A476EF17F078EF17F049
:102EEC0081EF17F0000186510309866F836B010E89
:102EFC00826F29C581F01200326E32C533F5BE984F
:102F0C0033506EEC17F02FC529F530C52AF531C5B5
:102F1C002BF52C6A50EC16F0BE881200A50E03019E
:102F2C00196F186B750E1B6F1C0E396E300E3A6EC6
:102F3C00000E3B6EB19EA18E800E1A6F12006A625B
:102F4C000000000000000000000000000000000075
:102F5C000000000000000000000000000000BE980F
:102F6C00A00E6EEC17F02FC529F530C52AF531C52A
:102F7C002BF52C6A50EC16F0BE881200DAEC17F028
:102F8C009DEC14F0F0EC15F094EC17F0A6EC16F0A8
:102F9C0012000301EB51246E236AEA512324216EA3
:102FAC00000E2420226E1200600E0001AD6FAF6B7C
:102FBC00B36B080EB16FB06BAC6B120029C53CF54E
:102FCC002AC53DF52BC53EF5120029C53FF52AC58E
:102FDC0040F52BC541F5120029C542F52AC543F52C
:102FEC002BC544F5120029C50AF52AC50BF52BC5CE
:102FFC000CF5120029C50DF52AC50EF52BC50FF5DC
:0F300C001200E7E7E7E7E7192B10E7E7E7E7E749
:10301C001FEC18F01CEC18F0120003011A8F1200B0
:10302C000301F38F12000301F38112000301F381FA
:10303C00120003011A9F120003011A8F1200B090A4
:02304C00120070
:020000040030CA
:080000008FFFF7FF9FFFFFFFD8
:01000900FFF7
:00000001FF
