:040000000DEF00F010
:04000800A4EF14F05D
:06001800FF0028EF15F0C7
:1026000000422C00000000282700000000662B007C
:10261000000000102B00000000000000E82C00006B
:1026200000000000000A2E00FC2D00834000000086
:0B2630000240000000830000070100D2
:10263C00D7EC16F0D68E04010895C7840985C3869D
:10264C00020E136E380E126EAD0EE82EFED7122E41
:10265C00FCD7132EFAD70000C69804010099BE9837
:10266C00C69C009DBE9CBE8821EC16F0020E94EC1C
:10267C0013F053EC14F021EE60F111EE14F11F0E77
:10268C00DBC4E3F4E806FCE2200E0A6E070E00EC55
:10269C0016F011EC17F04904D8A457EF13F059EFCA
:1026AC0013F081EF13F0140E0A6E050E0B6E200E54
:1026BC000C6EBEEC16F0BE8C496A290E486469EFAC
:1026CC0013F06BEF13F06CEF13F0486A482A346A7E
:1026DC00140E3424D96EDA6A050EDA2248C5DFF4FA
:1026EC00342A1F0E34647DEF13F07FEF13F06EEF7E
:1026FC0013F051EF13F04A04D8A487EF13F089EFCD
:10270C0013F051EF13F0BE9C200E0A6E070E00EC76
:10271C0016F04A6A4FEF13F00DEF00F0066E000151
:10272C0084BF9BEF13F09DEF13F0FDEF13F0810EC0
:10273C003D6E0650050DF3502B0F046E04C5F6F4D8
:10274C00260EF76E000EF86E0800F5C484F00650E5
:10275C00050DF3C404F5010E042604502B0F056E71
:10276C0005C5F6F4260EF76E000EF86E0800F5C4DB
:10277C0085F00650050DF3C404F5020E0426045032
:10278C002B0F056E05C5F6F4260EF76E000EF86ECF
:10279C000800F550FC0B866F0650050DF3C404F5CC
:1027AC00030E042604502B0F056E05C5F6F4260EF9
:1027BC00F76E000EF86E0800F5C489F00650050D92
:1027CC00F3C404F5040E042604502B0F056E05C546
:1027DC00F6F4260EF76E000EF86E0800F5C48CF0B9
:1027EC00C898A184848F859B858DFDEF13F0120012
:1027FC00BE6ABF6AC06AC16AC26AC36A0401026B5C
:10280C000A6B126B1A6B226B2A6BAF0EC66EC76803
:10281C00E70EC86EFD0EC96E0F0ECA6EF30ECB6EB0
:10282C00AF0E006FFB0E086FC70E106FFD0E186F0A
:10283C00070E206FF30E286F016B096B116B196B70
:10284C00216B296B03690B6913691B69070E236FD5
:10285C002B6904690C6914691C690F0E246F2C69AF
:10286C000201896B886B876B866B150E6B6F320E52
:10287C00156F130E6A6F310E146F0401056B066B26
:10288C00076B0D6B0E6B0F6B156B166B176B256B4C
:10289C00266B276B0E859E8E1200BE9C000E3FECA5
:1028AC0016F0050E3FEC16F0020E0A6E000E00EC50
:1028BC0016F0200E106E2A0EE82EFED7102EFCD726
:1028CC00010E0A6E020E00EC16F0000E0A6E040EDB
:1028DC0000EC16F0770E0A6E050E00EC16F0700E7A
:1028EC000A6E070E00EC16F0580E0A6E050E0B6EF3
:1028FC00050E0C6E100E9BEC16F0000E0A6E010EFF
:10290C0000EC16F0000E3FEC16F0116E170E3FECBB
:10291C0016F0BE98E10E74EC16F0BE88350EE82E5B
:10292C00FED7000011A29DEF14F09FEF14F0A2EF60
:10293C0014F0000EA3EF14F0010E1200FAC402F50D
:10294C00FBC403F59EAEADEF14F0AFEF14F0BAEF8D
:10295C0014F0AEAEB4EF14F0B6EF14F0BAEF14F00E
:10296C00E0EC16F0F0EF14F0A1AEBFEF14F0C1EFF5
:10297C0014F0CCEF14F0B1AEC6EF14F0C8EF14F0B5
:10298C00CCEF14F05BEC16F0F0EF14F0A1A2D1EF49
:10299C0014F0D3EF14F0DEEF14F0B1A2D8EF14F072
:1029AC00DAEF14F0DEEF14F058EC15F0F0EF14F051
:1029BC00A1A0E3EF14F0E5EF14F0F0EF14F0B1A0E8
:1029CC00EAEF14F0ECEF14F0F0EF14F0F5EC14F077
:1029DC00F0EF14F003C5FBF402C5FAF411003B5000
:1029EC003C10D8B4FCEF14F0FEEF14F00EEF15F021
:1029FC0037C5D9F438C5DAF480C0DFF4374A382A41
:102A0C00FF0E3B243B6EFF0E3C203C6E10EF15F08E
:102A1C00000180513B503C10D8A417EF15F019EF72
:102A2C0015F027EF15F0A19039503A10D8A421EFEA
:102A3C0015F023EF15F027EF15F0810E3D6E27EF03
:102A4C0015F01200100EF66E2D0EF76E000EF86ECD
:102A5C0001EE60F110EE25F00900F5C4EEF4E5503E
:102A6C00E150FAE12E0EF66E2E0EF76E000EF86E99
:102A7C0001EE58F110EE05F00900F5C4EEF4E55046
:102A8C00E150FAE101EE35F1170EEE6AE806FDE1D0
:102A9C000401080E5D6F000E5E6F000E5F6F00018B
:102AAC001EEF13F039503A10D8B45FEF15F061EF08
:102ABC0015F070EF15F035C5D9F436C5DAF4DF50E2
:102ACC000001816F354A362AFF0E3924396EFF0E0C
:102ADC003A203A6E39503A10D8A477EF15F079EFC6
:102AEC0015F087EF15F0A1923B503C10D8A481EF64
:102AFC0015F083EF15F087EF15F0810E3D6E87EF23
:102B0C0015F0120004C508F505C509F5810E3D1830
:102B1C00D8A493EF15F095EF15F0B2EF15F0000176
:102B2C0087858651FE0B0209866F08C535F509C5E8
:102B3C0036F5000E376E000E386E06C539F507C532
:102B4C003AF5000E3C6E000E3B6E420E3D6E075089
:102B5C00836F06C582F0A182120004C508F505C575
:102B6C0009F5810E3D18D8A4BEEF15F0C0EF15F095
:102B7C00DDEF15F00001878586510309866F08C5C6
:102B8C0035F509C536F508C537F509C538F506C557
:102B9C0039F507C53AF506C53BF507C53CF5420EB8
:102BAC003D6E0750836F06C582F0A180A182120092
:102BBC00D69AAF90D690000E046E000E056E000EE5
:102BCC00066EF7EC16F0B490D682000E046E000E72
:102BDC00056E000E066EF0EC16F0B890D684000E62
:102BEC00046E000E056E000E066EE9EC16F0D68E25
:102BFC009E8E12000C6E0C501F0B20090D6E000ED9
:102C0C000F6E000E0E6E0DC50EF50AC50FF5BE98B3
:102C1C000E0E046E050E056E000E076E020E066E8D
:102C2C00B3EC15F0BE88D00E0B6ECA0EE82EFED794
:102C3C000B2EFCD71200A194A182A1800001846B01
:102C4C00040E856F866B100E896F8C6B8785000E5A
:102C5C00046E000E056E000E066E05EC17F0000EED
:102C6C00046E000E056E000E066EFEEC16F03D6A4C
:102C7C0012000A6E0A501F0B0B6E000E0D6E000E2A
:102C8C000C6E0BC50CF50D68BE980C0E046E050E83
:102C9C00056E000E076E020E066EB3EC15F0BE88C4
:102CAC00500EE82EFED70D5012004C504D104E1009
:102CBC00D8B463EF16F065EF16F072EF16F002D889
:102CCC0072EF16F00500FA6E4C50FD6E4D50FE6E14
:102CDC004E50FF6EFA501200B19E1200046E810E1F
:102CEC003D18D8A47CEF16F07EEF16F087EF16F0A7
:102CFC00000186510309866F836B010E826F04C538
:102D0C0081F0120009646E78828C9610000000002D
:102D1C0000000000000000000000000000000000A7
:092D2C0000000000E7E7E7E7E71B
:102D36000D6E0DC50EF5BE980E5074EC16F00AC554
:102D460004F50BC505F50CC506F5076A88EC15F004
:102D5600BE881200F30E0301196F186B7F0E1B6FEE
:102D6600180E4C6E2E0E4D6E000E4E6EB19EA18E3E
:102D7600810E1A6F1200BE98A00E74EC16F00AC5EA
:102D860004F50BC505F50CC506F5076A88EC15F0C4
:102D9600BE881200600E0001AD6FAF6BB36B080EFC
:102DA600B16FB06BAC6B1200CDEC16F0FEEC13F00D
:102DB600ADEC16F0DEEC15F012000FC401F5015073
:102DC600FF0A04010F17010E4A6E120004C54FF5E3
:102DD60005C550F506C551F5120004C552F505C5E1
:102DE60053F506C554F5120004C555F505C556F547
:102DF60006C557F5120004C53EF505C53FF506C5DF
:102E060040F5120004C541F505C542F506C543F572
:102E16001200010E496E14EC17F0120003011A8F0E
:0D2E2600120003011A9F1200E7E7E7E7E73B
:020000040030CA
:080000008FFFF7FF9FFFFFFFD8
:01000900FFF7
:00000001FF
