:040000000DEF00F010
:04000800F7EF15F009
:06001800FF0041EF15F0AE
:1026000000B62C00000000062800000000982B00F7
:10261000000000422B000000000000002A2D0000F6
:102620000000000000762E00682E008340000000AD
:0B2630000240000000830000070100D2
:10263C0016EC17F0D68E47EC17F004010891C78002
:10264C000981C386020E106E380E0F6EAD0EE82E89
:10265C00FED70F2EFCD7102EFAD70000C896040117
:10266C001097C086C89A109BC09ACDEC16F0520EEB
:10267C00106E2B0E0F6E000EE82EFED70F2EFCD711
:10268C00102EFAD700D0BBEC16F0520E106E2B0E9B
:10269C000F6E000EE82EFED70F2EFCD7102EFAD799
:1026AC0000D0CDEC16F0BBEC16F0C0865BEC16F04F
:1026BC00020E03EC14F06DEC14F0316E3150D8A412
:1026CC006AEF13F06CEF13F07AEF13F0CDEC16F019
:1026DC00520E106E2B0E0F6E000EE82EFED70F2E24
:1026EC00FCD7102EFAD700D021EE60F111EE11F1CB
:1026FC001F0EDBC4E3F4E806FCE2200E076E070EA7
:10270C001AEC16F0100E076E070E1AEC16F0070EE8
:10271C0079EC16F0170E79EC16F0060E79EC16F033
:10272C00100E79EC16F0050E79EC16F0000E79EC23
:10273C0016F0110E076E050E086E200E096EEEECEB
:10274C0016F0070E79EC16F0170E79EC16F0E40E75
:10275C0000D000D0E82EFCD700D000D0170E79ECBA
:10276C0016F0C08A070E0F6E3A0EE82EFED70F2E0B
:10277C00FCD700D0C09A070E79EC16F0326E170E0B
:10278C0079EC16F032AACDEF13F0CFEF13F0D4EFB3
:10279C0013F0200E076E070E1AEC16F0070E79ECEC
:1027AC0016F0290E4764DDEF13F0DFEF13F0E0EFC6
:1027BC0013F0476A472A336A110E3324D96EDA6A4A
:1027CC00050EDA2247C5DFF4332A1F0E3364F1EF0E
:1027DC0013F0F3EF13F0E2EF13F0F40E106E820E21
:1027EC000F6E050EE82EFED70F2EFCD7102EFAD743
:1027FC00000088EF13F00DEF00F0036E000184BFB2
:10280C000AEF14F00CEF14F06CEF14F0810E3C6E28
:10281C000350050DF3502B0F016E01C5F6F4260E77
:10282C00F76E000EF86E0800F5C484F00350050D29
:10283C00F3C401F5010E012601502B0F026E02C5E7
:10284C00F6F4260EF76E000EF86E0800F5C485F04F
:10285C000350050DF3C401F5020E012601502B0F98
:10286C00026E02C5F6F4260EF76E000EF86E080026
:10287C00F550FC0B866F0350050DF3C401F5030EE8
:10288C00012601502B0F026E02C5F6F4260EF76ED0
:10289C00000EF86E0800F5C489F00350050DF3C462
:1028AC0001F5040E012601502B0F026E02C5F6F441
:1028BC00260EF76E000EF86E0800F5C48CF0C89862
:1028CC00A184848F859B858D6CEF14F01200C09AC7
:1028DC00000E79EC16F0050E79EC16F0020E076E70
:1028EC00000E1AEC16F0200E0D6E2A0EE82EFED7F6
:1028FC000D2EFCD7010E076E020E1AEC16F0000E10
:10290C00076E040E1AEC16F0770E076E050E1AEC15
:10291C0016F0700E076E070E1AEC16F0590E076EB5
:10292C00050E086E050E096E100EA9EC16F0000EC1
:10293C00076E010E1AEC16F0000E79EC16F00E6E06
:10294C00170E79EC16F0C096E10E95EC16F0C086D9
:10295C00350EE82EFED700000EA2B7EF14F0B9EF3B
:10296C0014F0BCEF14F0000EBDEF14F0010E1200C9
:10297C00BE6ABF6AC06AC16AC26AC36A0401026BDA
:10298C000A6B126B1A6B226B2A6BC668C768D20E65
:10299C00C86EFD0EC96E0F0ECA6EF30ECB6E0069BB
:1029AC000869C00E106FFD0E186F070E206FF30E26
:1029BC00286F016B096B116B196B216B296B036908
:1029CC000B6913691B69070E236F2B6904690C696A
:1029DC0014691C690F0E246F2C690201896B886BBA
:1029EC00876B866B110E6B6F320E116F140E6A6F44
:1029FC00310E156F0401056B066B076B0D6B0E6BBF
:102A0C000F6B156B166B176B256B266B276B1200F8
:102A1C003A503B10D8B415EF15F017EF15F027EF1F
:102A2C0015F036C5D9F437C5DAF480C0DFF4364A70
:102A3C00372AFF0E3A243A6EFF0E3B203B6E29EFED
:102A4C0015F0000180513A503B10D8A430EF15F02E
:102A5C0032EF15F040EF15F0A19038503910D8A492
:102A6C003AEF15F03CEF15F040EF15F0810E3C6E8F
:102A7C0040EF15F01200BC0EF66E2D0EF76E000E28
:102A8C00F86E01EE60F110EE20F00900F5C4EEF4E2
:102A9C00E550E150FAE1840EF66E2E0EF76E000E44
:102AAC00F86E01EE54F110EE0AF00900F5C4EEF4E4
:102ABC00E550E150FAE101EE34F1140EEE6AE8064D
:102ACC00FDE10401080E5D6F000E5E6F000E5F6F7E
:102ADC0000011EEF13F038503910D8B478EF15F010
:102AEC007AEF15F089EF15F034C5D9F435C5DAF461
:102AFC00DF500001816F344A352AFF0E3824386EBE
:102B0C00FF0E3920396E38503910D8A490EF15F0DB
:102B1C0092EF15F0A0EF15F0A1923A503B10D8A40B
:102B2C009AEF15F09CEF15F0A0EF15F0810E3C6EAE
:102B3C00A0EF15F0120001C505F502C506F5810ED2
:102B4C003C18D8A4ACEF15F0AEEF15F0CBEF15F0A8
:102B5C00000187858651FE0B0209866F05C534F589
:102B6C0006C535F5000E366E000E376E03C538F50A
:102B7C0004C539F5000E3B6E000E3A6E420E3C6EEB
:102B8C000450836F03C582F0A182120001C505F5C4
:102B9C0002C506F5810E3C18D8A4D7EF15F0D9EF75
:102BAC0015F0F6EF15F00001878586510309866F45
:102BBC0005C534F506C535F505C536F506C537F535
:102BCC0003C538F504C539F503C53AF504C53BF51D
:102BDC00420E3C6E0450836F03C582F0A180A1822B
:102BEC001200A1A2FCEF15F0FEEF15F009EF16F0A4
:102BFC00B1A203EF16F005EF16F009EF16F071EC29
:102C0C0015F019EF16F0A1A00EEF16F010EF16F05C
:102C1C0019EF16F0B1A015EF16F017EF16F019EF2B
:102C2C0016F00EEC15F01100096E09501F0B20095F
:102C3C000A6E000E0C6E000E0B6E0AC50BF507C566
:102C4C000CF5C0960B0E016E050E026E000E046E96
:102C5C00020E036ECCEC15F0C086D00E086ECA0EB8
:102C6C00E82EFED7082EFCD71200D69AAF90D6804D
:102C7C00000E016E000E026E000E036E2DEC17F0AE
:102C8C00B490D682000E016E000E026E000E036E22
:102C9C0026EC17F0B890D684000E016E000E026E72
:102CAC00000E036E1FEC17F01200A194A182A180FC
:102CBC000001846B040E856F866B100E896F8C6B14
:102CCC008785000E016E000E026E000E036E3BEC4B
:102CDC0017F0000E016E000E026E000E036E34EC47
:102CEC0017F03C6A1200076E07501F0B086E000E9F
:102CFC000A6E000E096E08C509F50A68C096090E21
:102D0C00016E050E026E000E046E020E036ECCEC0C
:102D1C0015F0C086500EE82EFED70A501200016E38
:102D2C00810E3C18D8A49DEF16F09FEF16F0A8EF7B
:102D3C0016F0000186510309866F836B010E826FBA
:102D4C0001C581F012000A6E0AC50BF5C0960B5036
:102D5C0095EC16F007C501F508C502F509C503F594
:102D6C00046AA1EC15F0C0861200C3A4C0EF16F0E3
:102D7C00C4EF16F0016A012AC5EF16F0016A01468C
:102D8C000146C3500118FB0B0118C36E1200C1A2FF
:102D9C00D2EF16F0D6EF16F0016A012AD7EF16F033
:102DAC00016A0146C1500118FD0B0118C16E1200D9
:102DBC0009646E78828C9610000000000000000000
:102DCC0000000000000000000000000000000000F7
:102DDC00C096A00E95EC16F007C501F508C502F5D6
:102DEC0009C503F5046AA1EC15F0C08612000301B5
:102DFC001969186B700E1B6F000E486E000E496E31
:102E0C00000E4A6EB19E800E1A6F1200600E000109
:102E1C00AD6FAF6BB36B080EB16FB06BAC6B1200D8
:102E2C000CEC17F0BEEC14F0FDEC16F03BEC16F0CD
:102E3C00120001C54BF502C54CF503C54DF512004A
:102E4C0001C54EF502C54FF503C550F5120001C57D
:102E5C0051F502C552F503C553F5120001C53DF5F8
:102E6C0002C53EF503C53FF5120001C540F502C58C
:102E7C0041F503C542F51200E7E7E7E7E7E7E7E7C7
:082E8C00E7E7C394C1921200B4
:020000040030CA
:080000008FFFF7FF9FFFFFFFD8
:01000900FFF7
:00000001FF
