:040000000DEF00F010
:040008001EEF13F0E4
:06001800FF0036EF16F0B8
:1026000000462D00000000082800000000162C00E5
:10261000000000C02B00000000000000502E000051
:102620000000000000542F00462F008340000000EF
:0B2630000240000000830000070100D2
:10263C00FAC425F5FBC426F59EAE27EF13F029EF5F
:10264C0013F034EF13F0AEAE2EEF13F030EF13F0B7
:10265C0034EF13F0F6EC16F08EEF13F09FA439EF75
:10266C0013F03BEF13F046EF13F0AFA440EF13F071
:10267C0042EF13F046EF13F00FEC17F08EEF13F060
:10268C00A0A04BEF13F04DEF13F058EF13F0B0A0E8
:10269C0052EF13F054EF13F058EF13F0CAEC17F09D
:1026AC008EEF13F0A1AE5DEF13F05FEF13F06AEF56
:1026BC0013F0B1AE64EF13F066EF13F06AEF13F0A2
:1026CC00DDEC16F08EEF13F0A1A26FEF13F071EFAB
:1026DC0013F07CEF13F0B1A276EF13F078EF13F058
:1026EC007CEF13F0B0EC15F08EEF13F0A1A081EF9E
:1026FC0013F083EF13F08EEF13F0B1A088EF13F00B
:10270C008AEF13F08EEF13F04DEC15F08EEF13F003
:10271C0026C5FBF425C5FAF411006EEC17F0D68E25
:10272C0004010895C7840985C386020E366E380EDF
:10273C00356EAD0EE82EFED7352EFCD7362EFAD7D9
:10274C000000C69804010099BE98C69C009DBE9CD2
:10275C00BE88A3EC16F0020E04EC14F0C3EC14F0DB
:10276C00200E2D6E070E82EC16F0BEEC17F0BBECB3
:10277C0017F01E04D8A4C5EF13F0C7EF13F0E0EF69
:10278C0013F01950356E366A050ED890353636363C
:10279C00E82ECBEF13F0200E35242D6E1D0E3620B7
:1027AC002E6E200E2F6E5FEC17F0192ABE8C1E6A4F
:1027BC00BFEF13F01D04D8A4E6EF13F0E8EF13F00D
:1027CC00BFEF13F0BE9C200E2D6E070E82EC16F0A0
:1027DC001D6A1C04D8A4F5EF13F0F7EF13F0FEEF0D
:1027EC0013F01E6A1C6ABBEC17F0196ABFEF13F0EA
:1027FC00010E1E6EBFEF13F00DEF00F0296E0001FD
:10280C0084BF0BEF14F00DEF14F06DEF14F0810E8C
:10281C00096E2950050DF3502B0F276E27C5F6F4C2
:10282C00260EF76E000EF86E0800F5C484F02950E1
:10283C00050DF3C427F5010E272627502B0F286E04
:10284C0028C5F6F4260EF76E000EF86E0800F5C4D7
:10285C0085F02950050DF3C427F5020E27262750C5
:10286C002B0F286E28C5F6F4260EF76E000EF86EA8
:10287C000800F550FC0B866F2950050DF3C427F5A5
:10288C00030E272627502B0F286E28C5F6F4260E8C
:10289C00F76E000EF86E0800F5C489F02950050D8E
:1028AC00F3C427F5040E272627502B0F286E28C5B6
:1028BC00F6F4260EF76E000EF86E0800F5C48CF0D8
:1028CC00C898A184848F859B858D6DEF14F01200C0
:1028DC00BE6ABF6AC06AC16AC26AC36A0401026B7B
:1028EC000A6B126B1A6B226B2A6BAF0EC66EC76823
:1028FC00E70EC86EFD0EC96E0F0ECA6EF30ECB6ED0
:10290C00AF0E006FFB0E086FC70E106FFD0E186F29
:10291C00070E206FF30E286F016B096B116B196B8F
:10292C00216B296B03690B6913691B69070E236FF4
:10293C002B6904690C6914691C690F0E246F2C69CE
:10294C000201896B886B876B866B150E6B6F320E71
:10295C00156F130E6A6F310E146F0401056B066B45
:10296C00076B0D6B0E6B0F6B156B166B176B256B6B
:10297C00266B276B0E859E8E1200BE9C000EC1EC42
:10298C0016F0050EC1EC16F0020E2D6E000E82EC48
:10299C0016F0200E336E2A0EE82EFED7332EFCD7FF
:1029AC00010E2D6E020E82EC16F0000E2D6E040E32
:1029BC0082EC16F0770E2D6E050E82EC16F0700E72
:1029CC002D6E070E82EC16F04B0E2D6E050E2E6E34
:1029DC00050E2F6E100E3CEC17F0000E2D6E010E36
:1029EC0082EC16F0000EC1EC16F0346E170EC1EC32
:1029FC0016F0BE98E10E28EC17F0BE88350EE82EC6
:102A0C00FED7000034A20DEF15F00FEF15F012EF0A
:102A1C0015F0000E13EF15F0010E1200E00E171852
:102A2C0009E1070E1818D8B41EEF15F020EF15F0B9
:102A3C004CEF15F079EC17F0040E236E2034203295
:102A4C001F32232E24EF15F01F50246E200E172456
:102A5C00D96E1D0E1820DA6E24C5DFF4174A182A19
:102A6C00E00E171807E1070E1818D8A440EF15F060
:102A7C0042EF15F04AEF15F0000E186E000E176EAF
:102A8C00010E1E6E4CEF15F0C7EC17F0120007503C
:102A9C000810D8B454EF15F056EF15F066EF15F09A
:102AAC0003C5D9F404C5DAF480C0DFF4034A042A60
:102ABC00FF0E0724076EFF0E0820086E68EF15F056
:102ACC000001805107500810D8A46FEF15F071EF7A
:102ADC0015F07FEF15F0A19005500610D8A479EFF2
:102AEC0015F07BEF15F07FEF15F0810E096E7FEF7F
:102AFC0015F012000301F39FD96BDA6BDB6BDC6B07
:102B0C00DF6BE06BE56BE76B010EEC6FEE6BEF6B65
:102B1C00D86BF06BF16BF26BF46B180EF56F100E4B
:102B2C00F66FF76BF86B1F0EFA6FF96B280E436E8E
:102B3C002A0E446E000E456E000E106E000E116EC5
:102B4C00000E126E1A6AAF949F84B090A090840EFF
:102B5C00F36F120005500610D8B4B7EF15F0B9EFAB
:102B6C0015F0C8EF15F001C5D9F402C5DAF4DF5041
:102B7C000001816F014A022AFF0E0524056EFF0E2B
:102B8C000620066E05500610D8A4CFEF15F0D1EF35
:102B9C0015F0DFEF15F0A19207500810D8A4D9EF6B
:102BAC0015F0DBEF15F0DFEF15F0810E096EDFEF9E
:102BBC0015F0120027C52BF528C52CF5810E091828
:102BCC00D8A4EBEF15F0EDEF15F00AEF16F00001BD
:102BDC0087858651FE0B0209866F2BC501F52CC526
:102BEC0002F5000E036E000E046E29C505F52AC50C
:102BFC0006F5000E086E000E076E420E096E2A5086
:102C0C00836F29C582F0A182120027C52BF528C538
:102C1C002CF5810E0918D8A416EF16F018EF16F043
:102C2C0035EF16F00001878586510309866F2BC599
:102C3C0001F52CC502F52BC503F52CC504F529C5EA
:102C4C0005F52AC506F529C507F52AC508F5420E6E
:102C5C00096E2A50836F29C582F0A180A1821200CF
:102C6C00620EF66E2F0EF76E000EF86E01EE46F148
:102C7C0010EE0AF00900F5C4EEF4E550E150FAE16B
:102C8C0007EE20F111EEE0F3EE6AE550E150FCE1C5
:102C9C00E250FAE101EE01F11E0EEE6AE806FDE1EA
:102CAC000401080E5D6F000E5E6F000E5F6F000179
:102CBC0093EF13F0D69AAF90D690000E276E000EBD
:102CCC00286E000E296E9CEC17F0B490D682000E84
:102CDC00276E000E286E000E296E95EC17F0B8903A
:102CEC00D684000E276E000E286E000E296E8EEC18
:102CFC0017F0D68E9E8E12002F6E2F501F0B2009B0
:102D0C00306E000E326E000E316E30C531F52DC5B1
:102D1C0032F5BE98310E276E050E286E000E2A6E07
:102D2C00020E296E0BEC16F0BE88D00E2E6ECA0E5B
:102D3C00E82EFED72E2EFCD71200A194A182A180E2
:102D4C000001846B040E856F866B100E896F8C6B83
:102D5C008785000E276E000E286E000E296EAAECD9
:102D6C0017F0000E276E000E286E000E296EA3ECD5
:102D7C0017F0096A12002D6E2D501F0B2E6E000ECF
:102D8C00306E000E2F6E2EC52FF53068BE982F0EAC
:102D9C00276E050E286E000E2A6E020E296E0BECA5
:102DAC0016F0BE88500EE82EFED730501200375069
:102DBC0038103910D8B4E5EF16F0E7EF16F0F4EF51
:102DCC0016F002D8F4EF16F00500FA6E3750FD6ECF
:102DDC003850FE6E3950FF6EFA501200B19E120040
:102DEC000FC41FF51F50FF0A04010F17010E1D6EB3
:102DFC003F0E1B18D8A405EF17F007EF17F00DEFD7
:102E0C0017F01B6A010E1C6E1E6A0EEF17F01B2AC0
:102E1C001200AF94435044104510D8B418EF17F07B
:102E2C001AEF17F027EF17F002D827EF17F005006D
:102E3C00FA6E4350FD6E4450FE6E4550FF6EFA50D4
:102E4C0012001200276E810E0918D8A430EF17F06B
:102E5C0032EF17F03BEF17F0000186510309866F34
:102E6C00836B010E826F27C581F01200306E30C566
:102E7C0031F5BE98315028EC17F02DC527F52EC52D
:102E8C0028F52FC529F52A6AE0EC15F0BE8812004A
:102E9C00A50E0301196F186B750E1B6F6C0E376E38
:102EAC002F0E386E000E396EB19EA18E800E1A6FE9
:102EBC001200BE98A00E28EC17F02DC527F52EC5D4
:102ECC0028F52FC529F52A6AE0EC15F0BE8812000A
:102EDC0084EC17F06EEC14F080EC15F04EEC17F05F
:102EEC0060EC16F012000301EB51226E216AEA51DC
:102EFC0021241F6E000E2220206E1200600E000195
:102F0C00AD6FAF6BB36B080EB16FB06BAC6B1200E7
:102F1C0027C53AF528C53BF529C53CF5120027C550
:102F2C003DF528C53EF529C53FF5120027C540F5EE
:102F3C0028C541F529C542F5120027C50AF528C553
:102F4C000BF529C50CF5120027C50DF528C50EF596
:102F5C0029C50FF51200E7E7E7E7E7E7E7E7E7E75B
:102F6C00C1EC17F0C4EC17F0120003011A8F120019
:102F7C000301F38F120003011A9F12000301F38166
:0C2F8C00120003011A8F1200B090120016
:020000040030CA
:080000008FFFF7FF9FFFFFFFD8
:01000900FFF7
:00000001FF
